:03000000020036C5
:0100030032CA
:03000B0002007977
:0100130032BA
:01001B0032B2
:0100230032AA
:10002B00324079243019120278001075E80075956A
:10003B0000C0D075D008780579007A057B097C0162
:10004B007D027F00D0D075817F90002CE993F591D4
:10005B00EA93F592E58954F04401F589C28C758CCD
:10006B0026758AFDC28DD28CD2A9D2AF80FEC0D0AC
:10007B00C0E075D0080FBF32647F0030FB4DB9096B
:10008B00227900B8051A7800BB091E7B00BA051649
:10009B007A00BD021A7D00BC01127C007D0180102C
:1000AB0008800D09800A0A80070B80040C80010D63
:1000BB0090002CE993F591E893F592EB93F593EA85
:1000CB0093F594ED93F58EEC93F58F20E800780083
:1000DB0079007A007B007C007D00020079D0E0D0B3
:0200EB00D03211
:00000001FF
