:1000000002005D7A5A79FA78FA30FB62D8FBD9F7A8
:10001000DAF3227A2D79FA78FA30FB52D8EBD9E765
:10002000DAE3227A5A7932786430FB42D8FBD9F786
:10003000DAF322758F78758E407594247593027566
:1000400092307591407C197D7822758F7F758E7FF7
:1000500075947F75937F75927F75917F2275817FEF
:1000600075E80075950012004A12000380EF20E841
:100070000C20E91520EA030200A102011320E91572
:1000800020EA030200B902013120EA06120033021D
:1000900000D102015E20EA061200330200F20201E2
:1000A000A0758F78758E4075942475930275923083
:1000B0007591401200030200A1758F7F758E7F75C8
:1000C000947F75937F7592787591191200030200E1
:1000D000B9120003AB8F858E8F85948E859394859E
:1000E00092938591928D918CF0ADF08BF0ACF002F3
:1000F00000D1120003AB91859291859392859493E0
:10010000858E94858F8E8C8F8DF0ACF08BF0ADF05A
:100110000200F2758F24758E0275943075934075C8
:10012000927875911912001312004A1200130201FD
:100130001312004A120003758F78120003758E4067
:1001400012000375942412000375930212000375C4
:100150009230120003759140120003020131758F35
:100160007F758E0975940675934775924775914012
:10017000120003758F78758E4075942475930275FF
:100180009230759140120003758F46758E0C7594F0
:100190004875933075924F75912412000302015EE9
:1001A000758F78758E7F75947F75937F75927F7547
:1001B000917F120023758F7F758E4075947F7593A4
:1001C0007F75927F75917F120023758F7F758E7F6B
:1001D00075942475937F75927F75917F12002375B6
:1001E0008F7F758E7F75947F75930275927F759161
:1001F0007F120023758F7F758E7F75947F75937F37
:1002000075923075917F120023758F7F758E7F7583
:10021000947F75937F75927F759140120023758F3F
:100220007F758E7F75947F75937F75923075917F02
:10023000120023758F7F758E7F75947F759302757D
:10024000927F75917F120023758F7F758E7F7594D5
:100250002475937F75927F75917F120023758F7F30
:10026000758E4075947F75937F75927F75917F121F
:100270000023758F78758E7F75947F75937F759247
:100280007F75917F120023758F78758E4075947FEE
:1002900075937F75927F75917F120023758F7875A6
:1002A0008E7F75942475937F75927F75917F120070
:1002B00023758F78758E7F75947F75930275927F05
:1002C00075917F120023758F78758E7F75947F7579
:1002D000937F75923075917F120023758F78758E9C
:1002E0007F75947F75937F75927F7591401200237F
:1002F000758F78758E7F75947F75937F7592307545
:10030000917F120023758F78758E7F75947F75931A
:100310000275927F75917F120023758F78758E7F9D
:1003200075942475937F75927F75917F1200237564
:100330008F78758E4075947F75937F75927F7591D8
:100340007F120023758F78758E4075942475937F86
:1003500075927F75917F120023758F78758E407529
:10036000947F75930275927F75917F120023758F2C
:1003700078758E4075947F75937F75923075917FF7
:10038000120023758F78758E4075947F75937F75F5
:10039000927F759140120023758F78758E40759409
:1003A0007F75937F75923075917F120023758F78DA
:1003B000758E4075947F75930275927F75917F124B
:1003C0000023758F78758E4075942475937F759290
:1003D0007F75917F120023758F78758E40759424F8
:1003E00075930275927F75917F120023758F7875D2
:1003F0008E4075942475937F75923075917F1200AD
:1004000023758F78758E4075942475937F75927FD0
:10041000759140120023758F78758E407594247500
:10042000937F75923075917F120023758F78758E4A
:100430004075942475930275927F75917F12002305
:10044000758F78758E40759424759302759230750A
:10045000917F120023758F78758E40759424759363
:100460000275927F759140120023758F78758E40CA
:1004700075942475930275923075917F12002375DF
:100480008F78758E407594247593027592307591AE
:1004900040120023758F7F758E40759424759302EA
:1004A000759230759140120023758F78758E7F7527
:1004B0009424759302759230759140120023758FC4
:1004C00078758E4075947F75930275923075914062
:1004D000120023758F78758E4075942475937F75FF
:1004E0009230759140120023758F78758E40759407
:1004F0002475930275927F759140120023758F7851
:10050000758E4075942475930275923075917F12A3
:100510000023758F78758E407594247593027592BB
:100520007F759140120023758F78758E40759424E5
:1005300075937F759230759140120023758F787591
:100540008E4075947F7593027592307591401200BC
:1005500023758F78758E7F7594247593027592300C
:10056000759140120023758F7F758E4075942475A8
:100570009302759230759140120023758F7F758EAE
:100580007F75942475930275923075914012002303
:10059000758F7F758E4075947F7593027592307557
:1005A0009140120023758F7F758E4075942475934A
:1005B0007F759230759140120023758F7F758E4044
:1005C00075942475930275927F759140120023757E
:1005D0008F7F758E40759424759302759230759156
:1005E0007F120023758F7F758E407594247593025A
:1005F00075927F759140120023758F7F758E4075BF
:10060000942475937F759230759140120023758FF5
:100610007F758E4075947F75930275923075914009
:10062000120023758F7F758E7F75942475930275E4
:100630009230759140120023758F7F758E7F75946F
:100640007F759302759230759140120023758F7FEC
:10065000758E7F75942475937F75923075914012D5
:100660000023758F7F758E7F759424759302759224
:100670007F759140120023758F7F758E7F7594244E
:1006800075930275923075917F120023758F7F7577
:100690008E7F75942475930275927F759140120038
:1006A00023758F7F758E7F75942475937F75923037
:1006B000759140120023758F7F758E7F75947F75BD
:1006C0009302759230759140120023758F7F758E5D
:1006D0007F75947F75937F759230759140120023DA
:1006E000758F7F758E7F75947F75930275927F7578
:1006F0009140120023758F7F758E7F75947F75935F
:100700000275923075917F120023758F7F758E7FF1
:1007100075947F75930275927F75914012002375D1
:100720008F7F758E7F75947F75937F7592307591ED
:1007300040120023758F7F758E7F75947F75937F30
:1007400075927F759140120023758F7F758E7F752E
:10075000947F75937F75923075917F120023758F0A
:100760007F758E7F75947F75937F75927F759140AD
:10077000120023758F7F758E7F75947F75937F75BB
:0B078000927F75917F1200230201A000
:00000001FF
