:1000000075817F020021C0F9A4B0999282F8809096
:100010007D2D80027D097CFA7BFADBFEDCFADDF6C1
:100020002275E80075950075300075310075321243
:100030009000061200A275F01430F90F30FA273044
:10004000FB3F120014D5F0F102009C12001430F9AD
:1000500006D5F0E502009C1200F31200A212001077
:1000600030F9F402003312001430FA06D5F0CA0257
:10007000009C1200E21200A212001030FAF40200FA
:100080003312001430FB06D5F0AF02009C1200D4EE
:100090001200A212001030FBF40200331200F3022F
:1000A0000033C0E0E530C4540F93F592E530540FAF
:1000B00093F591E531C4540F93F594E531540F93C2
:1000C000F593E532C4540F93F58FE532540F93F551
:1000D0008ED0E022E5322401D4F532B41303753218
:1000E0000122E5312401D4F531B4600675310012E6
:1000F00000D422E5302401D4F530B4600675300018
:040100001200E222E5
:00000001FF
