:03000000020036C5
:0100030032CA
:03000B0002007779
:0100130032BA
:01001B0032B2
:0100230032AA
:10002B00324079243019120278001075E80075956A
:10003B000075817F90002CE993F591EF93F592C0B9
:10004B00D075D008780079007A057B087C017D0299
:10005B00D0D0E58954F04401F589C28C758C267596
:10006B008AFDC28DD28CD2A9D2AF80FEC0D0C0E0A7
:10007B0075D0080FBF014F7F00B909227900B80571
:10008B001A7800BB091E7B00BA05167A00BD021A4E
:10009B007D00BC01127C007D01801008800D098061
:1000AB000A0A80070B80040C80010D90002CE99349
:1000BB00F591E893F592EB93F593EA93F594ED9321
:0B00CB00F58EEC93F58FD0E0D0D03222
:00000001FF
